{
  "_format": "hh-sol-artifact-1",
  "contractName": "TridentToken",
  "sourceName": "contracts/erc20.sol",
  "abi": [
    {
      "inputs": [
        {
          "internalType": "uint256",
          "name": "cap",
          "type": "uint256"
        },
        {
          "internalType": "uint256",
          "name": "reward",
          "type": "uint256"
        }
      ],
      "stateMutability": "nonpayable",
      "type": "constructor"
    },
    {
      "inputs": [],
      "name": "TridentToken_Not_Owner",
      "type": "error"
    },
    {
      "anonymous": false,
      "inputs": [
        {
          "indexed": true,
          "internalType": "address",
          "name": "owner",
          "type": "address"
        },
        {
          "indexed": true,
          "internalType": "address",
          "name": "spender",
          "type": "address"
        },
        {
          "indexed": false,
          "internalType": "uint256",
          "name": "value",
          "type": "uint256"
        }
      ],
      "name": "Approval",
      "type": "event"
    },
    {
      "anonymous": false,
      "inputs": [
        {
          "indexed": true,
          "internalType": "address",
          "name": "from",
          "type": "address"
        },
        {
          "indexed": true,
          "internalType": "address",
          "name": "to",
          "type": "address"
        },
        {
          "indexed": false,
          "internalType": "uint256",
          "name": "value",
          "type": "uint256"
        }
      ],
      "name": "Transfer",
      "type": "event"
    },
    {
      "inputs": [
        {
          "internalType": "address",
          "name": "owner",
          "type": "address"
        },
        {
          "internalType": "address",
          "name": "spender",
          "type": "address"
        }
      ],
      "name": "allowance",
      "outputs": [
        {
          "internalType": "uint256",
          "name": "",
          "type": "uint256"
        }
      ],
      "stateMutability": "view",
      "type": "function"
    },
    {
      "inputs": [
        {
          "internalType": "address",
          "name": "spender",
          "type": "address"
        },
        {
          "internalType": "uint256",
          "name": "amount",
          "type": "uint256"
        }
      ],
      "name": "approve",
      "outputs": [
        {
          "internalType": "bool",
          "name": "",
          "type": "bool"
        }
      ],
      "stateMutability": "nonpayable",
      "type": "function"
    },
    {
      "inputs": [
        {
          "internalType": "address",
          "name": "account",
          "type": "address"
        }
      ],
      "name": "balanceOf",
      "outputs": [
        {
          "internalType": "uint256",
          "name": "",
          "type": "uint256"
        }
      ],
      "stateMutability": "view",
      "type": "function"
    },
    {
      "inputs": [],
      "name": "cap",
      "outputs": [
        {
          "internalType": "uint256",
          "name": "",
          "type": "uint256"
        }
      ],
      "stateMutability": "view",
      "type": "function"
    },
    {
      "inputs": [],
      "name": "decimals",
      "outputs": [
        {
          "internalType": "uint8",
          "name": "",
          "type": "uint8"
        }
      ],
      "stateMutability": "view",
      "type": "function"
    },
    {
      "inputs": [
        {
          "internalType": "address",
          "name": "spender",
          "type": "address"
        },
        {
          "internalType": "uint256",
          "name": "subtractedValue",
          "type": "uint256"
        }
      ],
      "name": "decreaseAllowance",
      "outputs": [
        {
          "internalType": "bool",
          "name": "",
          "type": "bool"
        }
      ],
      "stateMutability": "nonpayable",
      "type": "function"
    },
    {
      "inputs": [],
      "name": "destroyToken",
      "outputs": [],
      "stateMutability": "nonpayable",
      "type": "function"
    },
    {
      "inputs": [
        {
          "internalType": "address",
          "name": "spender",
          "type": "address"
        },
        {
          "internalType": "uint256",
          "name": "addedValue",
          "type": "uint256"
        }
      ],
      "name": "increaseAllowance",
      "outputs": [
        {
          "internalType": "bool",
          "name": "",
          "type": "bool"
        }
      ],
      "stateMutability": "nonpayable",
      "type": "function"
    },
    {
      "inputs": [],
      "name": "name",
      "outputs": [
        {
          "internalType": "string",
          "name": "",
          "type": "string"
        }
      ],
      "stateMutability": "view",
      "type": "function"
    },
    {
      "inputs": [],
      "name": "returnOwner",
      "outputs": [
        {
          "internalType": "address",
          "name": "",
          "type": "address"
        }
      ],
      "stateMutability": "view",
      "type": "function"
    },
    {
      "inputs": [],
      "name": "s_blockReward",
      "outputs": [
        {
          "internalType": "uint256",
          "name": "",
          "type": "uint256"
        }
      ],
      "stateMutability": "view",
      "type": "function"
    },
    {
      "inputs": [
        {
          "internalType": "uint256",
          "name": "reward",
          "type": "uint256"
        }
      ],
      "name": "setBlockReward",
      "outputs": [],
      "stateMutability": "nonpayable",
      "type": "function"
    },
    {
      "inputs": [],
      "name": "symbol",
      "outputs": [
        {
          "internalType": "string",
          "name": "",
          "type": "string"
        }
      ],
      "stateMutability": "view",
      "type": "function"
    },
    {
      "inputs": [],
      "name": "totalSupply",
      "outputs": [
        {
          "internalType": "uint256",
          "name": "",
          "type": "uint256"
        }
      ],
      "stateMutability": "view",
      "type": "function"
    },
    {
      "inputs": [
        {
          "internalType": "address",
          "name": "to",
          "type": "address"
        },
        {
          "internalType": "uint256",
          "name": "amount",
          "type": "uint256"
        }
      ],
      "name": "transfer",
      "outputs": [
        {
          "internalType": "bool",
          "name": "",
          "type": "bool"
        }
      ],
      "stateMutability": "nonpayable",
      "type": "function"
    },
    {
      "inputs": [
        {
          "internalType": "address",
          "name": "from",
          "type": "address"
        },
        {
          "internalType": "address",
          "name": "to",
          "type": "address"
        },
        {
          "internalType": "uint256",
          "name": "amount",
          "type": "uint256"
        }
      ],
      "name": "transferFrom",
      "outputs": [
        {
          "internalType": "bool",
          "name": "",
          "type": "bool"
        }
      ],
      "stateMutability": "nonpayable",
      "type": "function"
    }
  ],
  "bytecode": "0x60a06040523480156200001157600080fd5b5060405162002694380380620026948339818101604052810190620000379190620006a4565b620000476200022c60201b60201c565b600a6200005591906200087b565b82620000629190620008cc565b6040518060400160405280600c81526020017f54726964656e74546f6b656e00000000000000000000000000000000000000008152506040518060400160405280600381526020017f54524900000000000000000000000000000000000000000000000000000000008152508160039080519060200190620000e6929190620005b4565b508060049080519060200190620000ff929190620005b4565b5050506000811162000148576040517f08c379a00000000000000000000000000000000000000000000000000000000081526004016200013f906200098e565b60405180910390fd5b80608081815250505033600560006101000a81548173ffffffffffffffffffffffffffffffffffffffff021916908373ffffffffffffffffffffffffffffffffffffffff160217905550620001f3600560009054906101000a900473ffffffffffffffffffffffffffffffffffffffff16620001c96200022c60201b60201c565b600a620001d791906200087b565b626acfc0620001e79190620008cc565b6200023560201b60201c565b620002036200022c60201b60201c565b600a6200021191906200087b565b816200021e9190620008cc565b600681905550505062000b84565b60006012905090565b62000245620002c660201b60201c565b816200025b620002d060201b620004021760201c565b620002679190620009b0565b1115620002ab576040517f08c379a0000000000000000000000000000000000000000000000000000000008152600401620002a29062000a5d565b60405180910390fd5b620002c28282620002da60201b6200083f1760201c565b5050565b6000608051905090565b6000600254905090565b620002ea620002c660201b60201c565b8162000300620002d060201b620004021760201c565b6200030c9190620009b0565b111562000350576040517f08c379a0000000000000000000000000000000000000000000000000000000008152600401620003479062000a5d565b60405180910390fd5b6200036782826200036b60201b620008a91760201c565b5050565b600073ffffffffffffffffffffffffffffffffffffffff168273ffffffffffffffffffffffffffffffffffffffff161415620003de576040517f08c379a0000000000000000000000000000000000000000000000000000000008152600401620003d59062000acf565b60405180910390fd5b620003f260008383620004d960201b60201c565b8060026000828254620004069190620009b0565b92505081905550806000808473ffffffffffffffffffffffffffffffffffffffff1673ffffffffffffffffffffffffffffffffffffffff168152602001908152602001600020600082825401925050819055508173ffffffffffffffffffffffffffffffffffffffff16600073ffffffffffffffffffffffffffffffffffffffff167fddf252ad1be2c89b69c2b068fc378daa952ba7f163c4a11628f55a4df523b3ef83604051620004b9919062000b02565b60405180910390a3620004d5600083836200059960201b60201c565b5050565b600073ffffffffffffffffffffffffffffffffffffffff168373ffffffffffffffffffffffffffffffffffffffff16141580156200054357504173ffffffffffffffffffffffffffffffffffffffff168273ffffffffffffffffffffffffffffffffffffffff1614155b80156200057d5750600073ffffffffffffffffffffffffffffffffffffffff164173ffffffffffffffffffffffffffffffffffffffff1614155b156200059457620005936200059e60201b60201c565b5b505050565b505050565b620005b2416006546200023560201b60201c565b565b828054620005c29062000b4e565b90600052602060002090601f016020900481019282620005e6576000855562000632565b82601f106200060157805160ff191683800117855562000632565b8280016001018555821562000632579182015b828111156200063157825182559160200191906001019062000614565b5b50905062000641919062000645565b5090565b5b808211156200066057600081600090555060010162000646565b5090565b600080fd5b6000819050919050565b6200067e8162000669565b81146200068a57600080fd5b50565b6000815190506200069e8162000673565b92915050565b60008060408385031215620006be57620006bd62000664565b5b6000620006ce858286016200068d565b9250506020620006e1858286016200068d565b9150509250929050565b7f4e487b7100000000000000000000000000000000000000000000000000000000600052601160045260246000fd5b60008160011c9050919050565b6000808291508390505b60018511156200077957808604811115620007515762000750620006eb565b5b6001851615620007615780820291505b808102905062000771856200071a565b945062000731565b94509492505050565b60008262000794576001905062000867565b81620007a4576000905062000867565b8160018114620007bd5760028114620007c857620007fe565b600191505062000867565b60ff841115620007dd57620007dc620006eb565b5b8360020a915084821115620007f757620007f6620006eb565b5b5062000867565b5060208310610133831016604e8410600b8410161715620008385782820a905083811115620008325762000831620006eb565b5b62000867565b62000847848484600162000727565b92509050818404811115620008615762000860620006eb565b5b81810290505b9392505050565b600060ff82169050919050565b6000620008888262000669565b915062000895836200086e565b9250620008c47fffffffffffffffffffffffffffffffffffffffffffffffffffffffffffffffff848462000782565b905092915050565b6000620008d98262000669565b9150620008e68362000669565b9250817fffffffffffffffffffffffffffffffffffffffffffffffffffffffffffffffff0483118215151615620009225762000921620006eb565b5b828202905092915050565b600082825260208201905092915050565b7f45524332304361707065643a2063617020697320300000000000000000000000600082015250565b6000620009766015836200092d565b915062000983826200093e565b602082019050919050565b60006020820190508181036000830152620009a98162000967565b9050919050565b6000620009bd8262000669565b9150620009ca8362000669565b9250827fffffffffffffffffffffffffffffffffffffffffffffffffffffffffffffffff0382111562000a025762000a01620006eb565b5b828201905092915050565b7f45524332304361707065643a2063617020657863656564656400000000000000600082015250565b600062000a456019836200092d565b915062000a528262000a0d565b602082019050919050565b6000602082019050818103600083015262000a788162000a36565b9050919050565b7f45524332303a206d696e7420746f20746865207a65726f206164647265737300600082015250565b600062000ab7601f836200092d565b915062000ac48262000a7f565b602082019050919050565b6000602082019050818103600083015262000aea8162000aa8565b9050919050565b62000afc8162000669565b82525050565b600060208201905062000b19600083018462000af1565b92915050565b7f4e487b7100000000000000000000000000000000000000000000000000000000600052602260045260246000fd5b6000600282049050600182168062000b6757607f821691505b6020821081141562000b7e5762000b7d62000b1f565b5b50919050565b608051611af462000ba060003960006105b90152611af46000f3fe608060405234801561001057600080fd5b50600436106101005760003560e01c8063395093511161009757806395d89b411161006657806395d89b411461029f578063a457c2d7146102bd578063a9059cbb146102ed578063dd62ed3e1461031d57610100565b80633950935114610203578063413e4e651461023357806370a082311461025157806394a927fe1461028157610100565b806323b872dd116100d357806323b872dd1461018d5780632e4eaa15146101bd578063313ce567146101c7578063355274ea146101e557610100565b806306fdde0314610105578063095ea7b31461012357806318160ddd146101535780631a18e70714610171575b600080fd5b61010d61034d565b60405161011a91906110a7565b60405180910390f35b61013d60048036038101906101389190611162565b6103df565b60405161014a91906111bd565b60405180910390f35b61015b610402565b60405161016891906111e7565b60405180910390f35b61018b60048036038101906101869190611202565b61040c565b005b6101a760048036038101906101a2919061122f565b6104bb565b6040516101b491906111bd565b60405180910390f35b6101c56104ea565b005b6101cf6105ac565b6040516101dc919061129e565b60405180910390f35b6101ed6105b5565b6040516101fa91906111e7565b60405180910390f35b61021d60048036038101906102189190611162565b6105dd565b60405161022a91906111bd565b60405180910390f35b61023b610614565b60405161024891906111e7565b60405180910390f35b61026b600480360381019061026691906112b9565b61061a565b60405161027891906111e7565b60405180910390f35b610289610662565b60405161029691906112f5565b60405180910390f35b6102a761068c565b6040516102b491906110a7565b60405180910390f35b6102d760048036038101906102d29190611162565b61071e565b6040516102e491906111bd565b60405180910390f35b61030760048036038101906103029190611162565b610795565b60405161031491906111bd565b60405180910390f35b61033760048036038101906103329190611310565b6107b8565b60405161034491906111e7565b60405180910390f35b60606003805461035c9061137f565b80601f01602080910402602001604051908101604052809291908181526020018280546103889061137f565b80156103d55780601f106103aa576101008083540402835291602001916103d5565b820191906000526020600020905b8154815290600101906020018083116103b857829003601f168201915b5050505050905090565b6000806103ea610a05565b90506103f7818585610a0d565b600191505092915050565b6000600254905090565b600560009054906101000a900473ffffffffffffffffffffffffffffffffffffffff1673ffffffffffffffffffffffffffffffffffffffff163373ffffffffffffffffffffffffffffffffffffffff1614610493576040517f26f324cb00000000000000000000000000000000000000000000000000000000815260040160405180910390fd5b61049b6105ac565b600a6104a79190611513565b816104b2919061155e565b60068190555050565b6000806104c6610a05565b90506104d3858285610bd8565b6104de858585610c64565b60019150509392505050565b600560009054906101000a900473ffffffffffffffffffffffffffffffffffffffff1673ffffffffffffffffffffffffffffffffffffffff163373ffffffffffffffffffffffffffffffffffffffff1614610571576040517f26f324cb00000000000000000000000000000000000000000000000000000000815260040160405180910390fd5b600560009054906101000a900473ffffffffffffffffffffffffffffffffffffffff1673ffffffffffffffffffffffffffffffffffffffff16ff5b60006012905090565b60007f0000000000000000000000000000000000000000000000000000000000000000905090565b6000806105e8610a05565b90506106098185856105fa85896107b8565b61060491906115b8565b610a0d565b600191505092915050565b60065481565b60008060008373ffffffffffffffffffffffffffffffffffffffff1673ffffffffffffffffffffffffffffffffffffffff168152602001908152602001600020549050919050565b6000600560009054906101000a900473ffffffffffffffffffffffffffffffffffffffff16905090565b60606004805461069b9061137f565b80601f01602080910402602001604051908101604052809291908181526020018280546106c79061137f565b80156107145780601f106106e957610100808354040283529160200191610714565b820191906000526020600020905b8154815290600101906020018083116106f757829003601f168201915b5050505050905090565b600080610729610a05565b9050600061073782866107b8565b90508381101561077c576040517f08c379a000000000000000000000000000000000000000000000000000000000815260040161077390611680565b60405180910390fd5b6107898286868403610a0d565b60019250505092915050565b6000806107a0610a05565b90506107ad818585610c64565b600191505092915050565b6000600160008473ffffffffffffffffffffffffffffffffffffffff1673ffffffffffffffffffffffffffffffffffffffff16815260200190815260200160002060008373ffffffffffffffffffffffffffffffffffffffff1673ffffffffffffffffffffffffffffffffffffffff16815260200190815260200160002054905092915050565b6108476105b5565b81610850610402565b61085a91906115b8565b111561089b576040517f08c379a0000000000000000000000000000000000000000000000000000000008152600401610892906116ec565b60405180910390fd5b6108a582826108a9565b5050565b600073ffffffffffffffffffffffffffffffffffffffff168273ffffffffffffffffffffffffffffffffffffffff161415610919576040517f08c379a000000000000000000000000000000000000000000000000000000000815260040161091090611758565b60405180910390fd5b61092560008383610edc565b806002600082825461093791906115b8565b92505081905550806000808473ffffffffffffffffffffffffffffffffffffffff1673ffffffffffffffffffffffffffffffffffffffff168152602001908152602001600020600082825401925050819055508173ffffffffffffffffffffffffffffffffffffffff16600073ffffffffffffffffffffffffffffffffffffffff167fddf252ad1be2c89b69c2b068fc378daa952ba7f163c4a11628f55a4df523b3ef836040516109e891906111e7565b60405180910390a36109fc60008383610f91565b5050565b505050565b600033905090565b600073ffffffffffffffffffffffffffffffffffffffff168373ffffffffffffffffffffffffffffffffffffffff161415610a7d576040517f08c379a0000000000000000000000000000000000000000000000000000000008152600401610a74906117ea565b60405180910390fd5b600073ffffffffffffffffffffffffffffffffffffffff168273ffffffffffffffffffffffffffffffffffffffff161415610aed576040517f08c379a0000000000000000000000000000000000000000000000000000000008152600401610ae49061187c565b60405180910390fd5b80600160008573ffffffffffffffffffffffffffffffffffffffff1673ffffffffffffffffffffffffffffffffffffffff16815260200190815260200160002060008473ffffffffffffffffffffffffffffffffffffffff1673ffffffffffffffffffffffffffffffffffffffff168152602001908152602001600020819055508173ffffffffffffffffffffffffffffffffffffffff168373ffffffffffffffffffffffffffffffffffffffff167f8c5be1e5ebec7d5bd14f71427d1e84f3dd0314c0f7b2291e5b200ac8c7c3b92583604051610bcb91906111e7565b60405180910390a3505050565b6000610be484846107b8565b90507fffffffffffffffffffffffffffffffffffffffffffffffffffffffffffffffff8114610c5e5781811015610c50576040517f08c379a0000000000000000000000000000000000000000000000000000000008152600401610c47906118e8565b60405180910390fd5b610c5d8484848403610a0d565b5b50505050565b600073ffffffffffffffffffffffffffffffffffffffff168373ffffffffffffffffffffffffffffffffffffffff161415610cd4576040517f08c379a0000000000000000000000000000000000000000000000000000000008152600401610ccb9061197a565b60405180910390fd5b600073ffffffffffffffffffffffffffffffffffffffff168273ffffffffffffffffffffffffffffffffffffffff161415610d44576040517f08c379a0000000000000000000000000000000000000000000000000000000008152600401610d3b90611a0c565b60405180910390fd5b610d4f838383610edc565b60008060008573ffffffffffffffffffffffffffffffffffffffff1673ffffffffffffffffffffffffffffffffffffffff16815260200190815260200160002054905081811015610dd5576040517f08c379a0000000000000000000000000000000000000000000000000000000008152600401610dcc90611a9e565b60405180910390fd5b8181036000808673ffffffffffffffffffffffffffffffffffffffff1673ffffffffffffffffffffffffffffffffffffffff16815260200190815260200160002081905550816000808573ffffffffffffffffffffffffffffffffffffffff1673ffffffffffffffffffffffffffffffffffffffff168152602001908152602001600020600082825401925050819055508273ffffffffffffffffffffffffffffffffffffffff168473ffffffffffffffffffffffffffffffffffffffff167fddf252ad1be2c89b69c2b068fc378daa952ba7f163c4a11628f55a4df523b3ef84604051610ec391906111e7565b60405180910390a3610ed6848484610f91565b50505050565b600073ffffffffffffffffffffffffffffffffffffffff168373ffffffffffffffffffffffffffffffffffffffff1614158015610f4557504173ffffffffffffffffffffffffffffffffffffffff168273ffffffffffffffffffffffffffffffffffffffff1614155b8015610f7e5750600073ffffffffffffffffffffffffffffffffffffffff164173ffffffffffffffffffffffffffffffffffffffff1614155b15610f8c57610f8b610f96565b5b505050565b505050565b610fa241600654610fa4565b565b610fac6105b5565b81610fb5610402565b610fbf91906115b8565b1115611000576040517f08c379a0000000000000000000000000000000000000000000000000000000008152600401610ff7906116ec565b60405180910390fd5b61100a828261083f565b5050565b600081519050919050565b600082825260208201905092915050565b60005b8381101561104857808201518184015260208101905061102d565b83811115611057576000848401525b50505050565b6000601f19601f8301169050919050565b60006110798261100e565b6110838185611019565b935061109381856020860161102a565b61109c8161105d565b840191505092915050565b600060208201905081810360008301526110c1818461106e565b905092915050565b600080fd5b600073ffffffffffffffffffffffffffffffffffffffff82169050919050565b60006110f9826110ce565b9050919050565b611109816110ee565b811461111457600080fd5b50565b60008135905061112681611100565b92915050565b6000819050919050565b61113f8161112c565b811461114a57600080fd5b50565b60008135905061115c81611136565b92915050565b60008060408385031215611179576111786110c9565b5b600061118785828601611117565b92505060206111988582860161114d565b9150509250929050565b60008115159050919050565b6111b7816111a2565b82525050565b60006020820190506111d260008301846111ae565b92915050565b6111e18161112c565b82525050565b60006020820190506111fc60008301846111d8565b92915050565b600060208284031215611218576112176110c9565b5b60006112268482850161114d565b91505092915050565b600080600060608486031215611248576112476110c9565b5b600061125686828701611117565b935050602061126786828701611117565b92505060406112788682870161114d565b9150509250925092565b600060ff82169050919050565b61129881611282565b82525050565b60006020820190506112b3600083018461128f565b92915050565b6000602082840312156112cf576112ce6110c9565b5b60006112dd84828501611117565b91505092915050565b6112ef816110ee565b82525050565b600060208201905061130a60008301846112e6565b92915050565b60008060408385031215611327576113266110c9565b5b600061133585828601611117565b925050602061134685828601611117565b9150509250929050565b7f4e487b7100000000000000000000000000000000000000000000000000000000600052602260045260246000fd5b6000600282049050600182168061139757607f821691505b602082108114156113ab576113aa611350565b5b50919050565b7f4e487b7100000000000000000000000000000000000000000000000000000000600052601160045260246000fd5b60008160011c9050919050565b6000808291508390505b600185111561143757808604811115611413576114126113b1565b5b60018516156114225780820291505b8081029050611430856113e0565b94506113f7565b94509492505050565b600082611450576001905061150c565b8161145e576000905061150c565b8160018114611474576002811461147e576114ad565b600191505061150c565b60ff8411156114905761148f6113b1565b5b8360020a9150848211156114a7576114a66113b1565b5b5061150c565b5060208310610133831016604e8410600b84101617156114e25782820a9050838111156114dd576114dc6113b1565b5b61150c565b6114ef84848460016113ed565b92509050818404811115611506576115056113b1565b5b81810290505b9392505050565b600061151e8261112c565b915061152983611282565b92506115567fffffffffffffffffffffffffffffffffffffffffffffffffffffffffffffffff8484611440565b905092915050565b60006115698261112c565b91506115748361112c565b9250817fffffffffffffffffffffffffffffffffffffffffffffffffffffffffffffffff04831182151516156115ad576115ac6113b1565b5b828202905092915050565b60006115c38261112c565b91506115ce8361112c565b9250827fffffffffffffffffffffffffffffffffffffffffffffffffffffffffffffffff03821115611603576116026113b1565b5b828201905092915050565b7f45524332303a2064656372656173656420616c6c6f77616e63652062656c6f7760008201527f207a65726f000000000000000000000000000000000000000000000000000000602082015250565b600061166a602583611019565b91506116758261160e565b604082019050919050565b600060208201905081810360008301526116998161165d565b9050919050565b7f45524332304361707065643a2063617020657863656564656400000000000000600082015250565b60006116d6601983611019565b91506116e1826116a0565b602082019050919050565b60006020820190508181036000830152611705816116c9565b9050919050565b7f45524332303a206d696e7420746f20746865207a65726f206164647265737300600082015250565b6000611742601f83611019565b915061174d8261170c565b602082019050919050565b6000602082019050818103600083015261177181611735565b9050919050565b7f45524332303a20617070726f76652066726f6d20746865207a65726f2061646460008201527f7265737300000000000000000000000000000000000000000000000000000000602082015250565b60006117d4602483611019565b91506117df82611778565b604082019050919050565b60006020820190508181036000830152611803816117c7565b9050919050565b7f45524332303a20617070726f766520746f20746865207a65726f20616464726560008201527f7373000000000000000000000000000000000000000000000000000000000000602082015250565b6000611866602283611019565b91506118718261180a565b604082019050919050565b6000602082019050818103600083015261189581611859565b9050919050565b7f45524332303a20696e73756666696369656e7420616c6c6f77616e6365000000600082015250565b60006118d2601d83611019565b91506118dd8261189c565b602082019050919050565b60006020820190508181036000830152611901816118c5565b9050919050565b7f45524332303a207472616e736665722066726f6d20746865207a65726f20616460008201527f6472657373000000000000000000000000000000000000000000000000000000602082015250565b6000611964602583611019565b915061196f82611908565b604082019050919050565b6000602082019050818103600083015261199381611957565b9050919050565b7f45524332303a207472616e7366657220746f20746865207a65726f206164647260008201527f6573730000000000000000000000000000000000000000000000000000000000602082015250565b60006119f6602383611019565b9150611a018261199a565b604082019050919050565b60006020820190508181036000830152611a25816119e9565b9050919050565b7f45524332303a207472616e7366657220616d6f756e742065786365656473206260008201527f616c616e63650000000000000000000000000000000000000000000000000000602082015250565b6000611a88602683611019565b9150611a9382611a2c565b604082019050919050565b60006020820190508181036000830152611ab781611a7b565b905091905056fea26469706673582212203da6cec08234769536bd153c0dc06f3ddbed0fa36b1442b12ea80486983973ce64736f6c63430008090033",
  "linkReferences": {},
  "deployedLinkReferences": {}
}